:020000040800F2
:10000000201700209D0100080D290008ED2300089D
:10001000712700080B0800083D37000800000000A9
:100020000000000000000000000000005D2B000840
:100030000D090008000000000F2900085F2B0008D0
:10004000B7010008B7010008B7010008B7010008B0
:10005000B7010008B7010008B7010008B7010008A0
:10006000B7010008B7010008B7010008B701000890
:10007000B701000839080008B70100084508000862
:10008000B7010008B7010008B7010008B701000870
:10009000B7010008B7010008B7010008B701000860
:1000A000B7010008B7010008B7010008B701000850
:1000B000B7010008A92D0008B7010008B701000822
:1000C000B7010008B7010008B7010008B701000830
:1000D000B701000831370008B7010008B701000870
:1000E000B7010008B7010008B7010008B701000810
:1000F000B7010008B7010008B7010008B701000800
:10010000B7010008B7010008B7010008B7010008EF
:10011000FD330008B7010008B7010008B701000867
:10012000B7010008B701000851080008B70100082E
:10013000B7010008B7010008B7010008B7010008BF
:10014000B7010008B7010008B7010008B7010008AF
:10015000B7010008B70100085D080008B7010008F2
:10016000B7010008B7010008B7010008B70100088F
:10017000B7010008B7010008B7010008000000003F
:10018000B7010008B7010008DFF80CD000F07AF8DA
:10019000004800477D3700082017002006488047A8
:1001A00006480047FEE7FEE7FEE7FEE7FEE7FEE75C
:1001B000FEE7FEE7FEE7FEE78D2D00088901000857
:1001C0002DE9F05F0546002092469B46884606468C
:1001D000814640241BE0284641464746224600F01F
:1001E00041F853465A46C01A914110D31146184659
:1001F000224600F028F82D1A67EB01084F462246E8
:100200000120002100F01FF817EB00094E41201ECD
:10021000A4F10104DFDC484631462A464346BDE8E6
:10022000F09FD2B201E000F8012B491EFBD27047CB
:100230000022F6E710B513460A4604461946FFF7B2
:10024000F0FF204610BD202A04DB203A00FA02F11C
:10025000002070479140C2F1200320FA03F31943B4
:1002600090407047202A04DB203A21FA02F0002156
:10027000704721FA02F3D040C2F1200291400843B6
:1002800019467047064C074D06E0E06840F0010350
:1002900094E8070098471034AC42F6D3FFF778FF94
:1002A000D03A0008F03A000870B58C1810F8015BDD
:1002B00015F0070301D110F8013B2A1106D110F8FF
:1002C000012B03E010F8016B01F8016B5B1EF9D103
:1002D0002B0705D40023521E0DD401F8013BFAE789
:1002E00010F8013BCB1A921C03E013F8015B01F8F4
:1002F000015B521EF9D5A142D8D3002070BD000089
:1003000000220D480523114602808280C28042806F
:10031000028142818281C3818318521C92B2197476
:10032000C82AF9D300228318521C92B283F8D8103D
:10033000C82AF8D3704700005C0F0020F0B50024F5
:10034000DDE90A62099F079D20B15B1C022B05D3E2
:10035000002203E0521C022A00D300233B603260DB
:1003600001224FF6FF730AE032EA00062E6809D038
:1003700036EA0206641C03EA4202A4B22E608C42F2
:10038000F2D3F0BD1643F5E72DE9F04FA7B00546CF
:1003900000200F90109011901390129014901590CF
:1003A00016900E9017902590189019901A901B9007
:1003B0001C901D901E901F902090219022902390C1
:1003C000249017461C46AA78EE782B79697902EBBF
:1003D000060E0EEB030B0BEB0106F849CB78AA2BAC
:1003E0007DD1C870F6498146A1F2FE2A0B8B50469A
:1003F000C3F3450CAAF848C2C3F3042CAAF84AC2B6
:100400004FEA533C4B8B03F00F080CEBC80C4FEA40
:100410005C0CAAF84CC2C3F34413AAF84E328B8B7F
:1004200003F07F0CAAF850C2C3F3C51CAAF852C24D
:100430004FEA533CCB8B03F00F080CEBC80CA0F831
:1004400054C2C3F34413A0F856320B8CC3F3450CCB
:10045000A0F858C2C3F3042CA0F85AC24FEA533C88
:100460004B8C03F00F080CEBC80C4FEA5C0CA0F8A7
:100470005CC2C3F34413A0F85E328B8C03F07F0C94
:10048000A0F860C2C3F3C51CA0F862C24FEA533C97
:10049000CB8C03F00F080CEBC80CA0F864C2C3F3BC
:1004A0000513A0F866320B8DC3F3450CA0F868C2A3
:1004B000C3F3042CA0F86AC24FEA533C4B8D03F0FF
:1004C0000F080CEBC80C4FEA5C0CA0F86CC2C3F32D
:1004D0004413A0F86E328B8D03F07F0C00E091E1A5
:1004E000A0F870C2C3F3C51CA0F872C2C98D5B0B23
:1004F00001F00F0C03EBCC03A0F87432C1F305112B
:10050000A0F8761209FA0BF109FA0EF30B4409FA76
:1005100002F103EB010CCDF820C0CDF828C0CDF8D6
:100520002CC0CDF824C0CDF834C0D0F8E8811FAB82
:1005300019AA0FA90391CDE90423CDF818802A7ACE
:100540004FF0010BCDE9002B15AB029307F5FE72BE
:1005500031466046DAF8E431FFF7F0FE0F99B14218
:1005600002D3CAF8A49102E0159ACAF8A421AAF805
:10057000BC111999CAF8E4111F9ACAF8E821DAF8EF
:100580008C21504691420AD395F8391039B985F833
:1005900039B06288594612B96180A180E1800DF1BD
:1005A0000C0E20AB1AAA10A9D0F8F0C18EE80E10DC
:1005B0002A7ACDE9002B16AB0293D04607F51372C9
:1005C0003146DAF8EC310A98FFF7B8FE1099B142DB
:1005D00002D3C8F8B09102E0169AC8F8B021A8F882
:1005E000C2111A99C8F8EC11209AC8F8F021D8F86D
:1005F0008C21404691420FD395F839108A070BD4CD
:1006000041F0020185F83910618829B90221618021
:10061000A4F804B0A4F806B00DF10C0A21AB1BAA93
:1006200011A9D0F8F8C18AE80E102A7ACDE9002B7A
:1006300017AB029307F527723146D8F8F4310B98BF
:10064000FFF77CFE1199B14202D3C8F8A89102E0ED
:10065000179AC8F8A821A8F8BE111B99C8F8F41178
:10066000219AC8F8F821D8F88C21404691420FD33E
:1006700095F839104A070BD441F0040185F8391078
:10068000618829B903216180A4F804B0A4F806B0F8
:100690000DF10C0A22AB1CAA12A9D0F800C28AE8FC
:1006A0000E102A7ACDE9002B0EAB0293DA4607F53D
:1006B0003B723146D8F8FC310998FFF73FFE12999A
:1006C000B14202D3C8F8B49102E00E9AC8F8B4213E
:1006D000A8F8C4111C99C8F8FC11229AC8F8002285
:1006E000D8F88C21404691420FD395F839100A076B
:1006F0000BD441F0080185F83910618829B904212B
:100700006180A4F804A0A4F806A00DF10C0B23ABA3
:100710001DAA13A9D0F808C28BE80E102A7ACDE9D9
:10072000002A25AB029307F54F723146D8F8043200
:100730000898FFF703FE1399B14202D3C8F8AC91B1
:1007400002E00E9AC8F8B421A8F8C0111D99C8F8A3
:100750000412239AC8F80822D8F88C214046914206
:100760000FD395F83910CA060BD441F0100185F863
:100770003910618829B905216180A4F804A0A4F882
:1007800006A00DF10C0B24AB1EAA14A9D0F810C2C0
:100790008BE80E102A7ACDE9002A18AB029307F5F0
:1007A00063723146D8F80C320D98FFF7C7FD1499E3
:1007B000B14207D3C8F8B89107E00000000000205C
:1007C0008E0E0020189AC8F8B821A8F8C6111E99F4
:1007D000C8F80C12249AC8F81022D8F88C0181426B
:1007E00010D395F8390081060CD440F0200085F82C
:1007F00039006088002805D106206080A4F804A094
:10080000A4F806A027B0BDE8F08FFEE770B5094D4B
:10081000FF231A4605F5807606E000BF10F8014B6D
:1008200054402A5D5A40335D491E89B2F6D242EAED
:10083000032070BD1C000020014800F03BBA0000FE
:100840007C110020014800F035BA0000DC110020C6
:10085000014800F02FBA00009C120020014800F06F
:1008600029BA00003C12002001681823CAB2103ACD
:10087000B2FBF3F2054B6FF30901032A9B5CC365DE
:1008800000D9091D8165084670470000B03A00088C
:1008900010B5014600208B698A6A4FF0C07453B1CD
:1008A000B3F5005F15D072B1012A0CD0022A0AD02C
:1008B000032A09D104E01AB1012A06D0022A03D181
:1008C000C96AC90100D5012010BDC96AA142FAD088
:1008D00010BD002AF7D0012AF2D0022AF3D0032A51
:1008E000F3D010BD30B50468256825F48025256057
:1008F000046863608368402B036803D099600068D4
:10090000C26030BD9A600068C16030BD70477047FA
:10091000002229B101291AD002291BD04FF44072BC
:100920000E490B6823F440730B600B6813430B6094
:100930000A6822F0F8020A600A68022303EBC0008A
:1009400002430A60086840F48030086070474FF442
:100950008072E5E74FF40072E2E70000103C0240CD
:100960001348016889050FD5016821F40071016001
:10097000016841F400610160016821F400610160D7
:10098000016841F400710160016849050FD50168F3
:1009900021F480610160016841F4805101600168C7
:1009A00021F480510160016841F480610160704769
:1009B000003C024008490A6822F440720A600A6852
:1009C00042F004020A600A684FF4803343EA0020D0
:1009D00002430A6070470000103C0240064A136858
:1009E00023F44073136013681360136843F001032A
:1009F0001360017070470000103C0240094910B5B7
:100A00000C6824F440740C600C6844F440740C606E
:100A10000C6844F001040C600260BFF36F8F436008
:100A200010BD0000103C0240074A136823F44073D5
:100A30001360136843F480731360136843F0010379
:100A40001360018070470000103C0240074A1368A1
:100A500023F440731360136843F400731360136846
:100A600043F001031360016070470000103C024036
:100A700017490868C206174805D5C26942F0100236
:100A8000C26110220A600A68920605D5C26942F066
:100A90000802C26120220A600A68520605D5C269AE
:100AA00042F00402C26140220A600A68120605D5BB
:100AB000C26942F00202C26180220A600A6892079B
:100AC00005D5C26942F02002C26102200860704769
:100AD0000C3C0240FC12002070B511490446002075
:100AE000C86100F041FC06460E4D09E0601C07D0CD
:100AF00024B100F039FC801BA04201D9032070BD55
:100B00002868C003F2D42868C00701D001202860FB
:100B1000286810F0F200F2D0FFF7AAFF012070BDA4
:100B2000FC1200200C3C024070B5B3F5804F05D09C
:100B30006FF0704140F82210002070BD50F8224044
:100B4000084B8E891C40D1E9003543EA05138D68B6
:100B500089692D0245EA06452B430B43234340F8A0
:100B60002230E9E70000F0CFF0B50C6850F82430EF
:100B7000114A1340D1E90125D1E903672A433E43D5
:100B800032434E6932438E693243CE6932430E6A34
:100B900032434E6A32438E6A3243CE6A3243CE6B60
:100BA000096B32430A431A43082D01D142F0400237
:100BB00040F824200020F0BD8000F0FF30B500EBAD
:100BC000820250688D8900F04043D1E9000440EA78
:100BD00004108C68240244EA054420430C8A074D23
:100BE00005EB045420430C7D6D0105EB0464896919
:100BF0002043084318435060002030BD0000F0FF40
:100C00002DE9F0410446876D00F0AEFB064694F8EE
:100C100035000025022806D08020606584F8345015
:100C20000120BDE8F0812068016821F01601016013
:100C30002068416921F080014161206C08B9A06CF5
:100C400020B12068016821F0080101602068016876
:100C500021F0010101600BE000F086FB801B0528FC
:100C600006D92020606504F8345F03206070D8E75F
:100C700020680068C007EFD194F85C103F208840DE
:100C8000B86004F8345F012060700020C9E790F874
:100C90003510022903D080214165012070470521CC
:100CA00080F835100068016821F001010160002022
:100CB000704700002DE9F84304464FF00009CDF8D5
:100CC000009063484FF41651A56D0068B0FBF1F732
:100CD0002E6894F85C10082000FA01F131420FD020
:100CE00021680A6852070BD50A6822F004020A60DC
:100CF00094F85C108840A860606D40F00100606569
:100D000094F85C104FF0010808FA01F0304208D066
:100D100021684969090604D5A860606D40F00200A9
:100D2000606594F85C1004208840304208D0216847
:100D30000968890704D5A860606D40F0040060650B
:100D400094F85C1010208840304218D0216809685F
:100D5000090714D5A86020680168490304D5006814
:100D6000000308D5A16C07E00168C90503D4016838
:100D700021F008010160216C09B12046884794F8F0
:100D80005C1020208840304231D021680968C906B3
:100D90002DD5A86094F8350005282068016806D094
:100DA000490347D5006800031DD4616C1CE021F0A5
:100DB000160101602068416921F080014161206CC9
:100DC00008B9A06C20B12068016821F00801016019
:100DD00094F85C103F208840A86084F8349084F830
:100DE0003580216D1FE0E16B09B120468847606DB9
:100DF00000282BD0606DC00714D0052084F8350082
:100E00002068016821F0010101600098401C0090F9
:100E1000B84203D820680068C007F6D184F834903F
:100E200084F83580E16C002910D001B02046BDE87F
:100E3000F04308470168C905D5D4016821F01001C5
:100E4000016084F8349084F83580CCE7BDE8F883FD
:100E5000380700202DE9F041044600F085FA0646E7
:100E60005CB1002584F83450022084F835002068F5
:100E7000016821F0010101600DE00120BDE8F08171
:100E800000F072FA801B052805D920206065032038
:100E900084F83500F2E720680068C007F0D12268C6
:100EA000116820480140D4E901031843D4E903360E
:100EB0003343184363691843A3691843E36918432C
:100EC000236A18430843616A042903D1D4E90B1348
:100ED00019430843106020684069666A20F00701E2
:100EE00030460E43012704280CD1A06A0643E06A6D
:100EF00040B12046FFF7CCFC20B14020606584F86B
:100F00003570BAE7206846612046FFF7ADFC94F8DB
:100F10005C203F2191408160656584F83570002038
:100F2000ACE700003F8010F02DE9F0410446866DEB
:100F300090F83400002501280DD0012084F83400F9
:100F400094F835700020012F07D084F83400022572
:100F50002846BDE8F0810220FBE7022784F83570BF
:100F600060652046FFF7BEFC94F85C103F20884087
:100F7000B0602068016841F016010160206C20B16A
:100F80002068016841F0080101602068016841F0B3
:100F900001010160DCE7000070B5044600F0E4F9EF
:100FA0000546601C02D004480078044400F0DCF9D7
:100FB000401BA042FAD370BD280700202DE9F0475E
:100FC000044622480F46017E01290AD001218046AD
:100FD00001764CF250394846FFF77EFD020003D0FF
:100FE0002FE00220BDE8F0874FF0FF303860206826
:100FF000174D012801D0A6681CE0207C6168FFF72E
:10100000D9FC4846FFF768FD0246286820F0040036
:10101000286014E0217C3046FFF77AFC4846FFF751
:101020005BFD0200286820F0FA00286001D03E60D5
:1010300005E0761CD4E902100844B042EAD8FFF774
:101040008FFC002188F818101046CBE7FC12002016
:10105000103C02400348016841F00041016000205B
:1010600070470000103C02402DE9F0471B4E05463A
:101070001446307E1F468946012808D0012030766C
:101080004CF250384046FFF727FD18B114E002201B
:10109000BDE8F0879DB1012D16D0022D19D0224652
:1010A0003B464846FFF7AAFC4046FFF715FD0C49B2
:1010B0000A6822F001020A6000213176E8E7E1B215
:1010C0004846FFF78BFCEFE7A1B24846FFF7ACFCC0
:1010D000EAE721464846FFF7B9FCE5E7FC120020A5
:1010E000103C0240074900200A68002A09DA054A34
:1010F000054B0C3A1360054B13600968002900DAB0
:1011000001207047103C024023016745AB89EFCDB9
:10111000F0B587B014216846FFF78AF81A480168CD
:1011200000292ED10121016018480024016841F0F6
:10113000010101600068022500F0010005904FF6F2
:10114000FC70CDE9000502AA03260C2782E8D00036
:1011500069460F4800F022F84FF6B370CDE900055C
:1011600002AA694682E8D0000A4800F017F88020F9
:10117000CDE9000502AA694682E8D000064800F0E1
:101180000DF807B0F0BD000000070020383802401D
:1011900000100240000C0240000402402DE9F84F0C
:1011A00000224FF0010803254FF00F0E0B6808FADC
:1011B00002F42340A3426ED14E68012E05D0022EC8
:1011C00003D0112E01D0122E12D186684FEA420CA4
:1011D00005FA0CF7BE43CF6807FA0CF73743876070
:1011E0004668A6430C79C4F3001494403443446029
:1011F000C668570005FA07FC8C6826EA0C06BC4056
:101200003443C4604C68022C01D0122C13D1D40892
:1012100000EB8404A346D4F8209054074FEAD46A24
:101220000EFA0AF629EA06090E6906FA0AF646EAED
:101230000906CBF8206006680C7926EA0C0604F053
:101240000304BC40344304604C68E40065D5364C6C
:10125000266846F480462660246822F0030604F4DB
:1012600080440094314C3444A446D4F8084896078E
:10127000370F0EFA07F6B4432D4EB04201D10026C7
:1012800024E02C4EB04201D101261FE02A4EB0428C
:1012900002D102261AE040E0284EB04201D10326D6
:1012A00014E0274EB04201D104260FE0254EB04293
:1012B00001D105260AE0244EB04201D1062605E000
:1012C000224EB04201D1072600E00826BE40264348
:1012D000CCF808681E4E34684F689C43FF0300D565
:1012E0001C4334601A4C241D26684F689E43BF037C
:1012F00000D51E432660164E083634684F689C435E
:10130000FF0200D51C433460114E0C3634684F6820
:101310009C43BF0200D51C433460521C102AFFF4CA
:1013200045AFBDE8F88F000044380240003001406E
:10133000000002400004024000080240000C02408D
:10134000001002400014024000180240001C02403D
:10135000003C01400069084000D0012070470AB1FC
:10136000816170470904FBE701488068704700000D
:101370002807002002488168027811448160704784
:10138000280700200B4810B5016841F40071016086
:10139000016841F480610160016841F4807101607D
:1013A000032000F0A9F8002000F006F800F024F86F
:1013B000002010BD003C024070B50D4D04464FF4B6
:1013C0007A712878B1FBF0F00A490968B1FBF0F0B6
:1013D00000F03EFB48B9102C07D200222146501ED7
:1013E00000F06AF800206C6070BD012070BD000044
:1013F00028070020380700200A4808B5016841F492
:1014000080410160006800F4804000900548001FA2
:10141000016841F080510160006800F08050009048
:1014200008BD0000443802402DE9F04116460F4641
:10143000040004D094F84900002518B107E0012009
:10144000BDE8F08184F84850204600F025F804F10A
:1014500008012068FFF788FB3946A2682068FFF77B
:10146000ADFBD4E901023146236BFFF75DFBA168B8
:10147000206850F8212042F0010240F82120054860
:101480006269012122B1016084F849100020D7E788
:101490000560F9E734070020FFF73ABE002809DBB2
:1014A00000F01F02012191404009800000F1E0207E
:1014B000C0F8001170470000F0B40E4B1B680C46DA
:1014C000C3F30223C3F10705042D00D90425191D18
:1014D000072901D2002300E0DB1E012606FA05F1F0
:1014E000491E214099409E40761E16403143F0BC73
:1014F00002F025B90CED00E0064900F0070208688B
:101500004FF6FF03184040EA0220034A10430860E8
:10151000704700000CED00E00000FA052DE9F047EF
:101520000E46050065D0DFF81481D8F80000F7B248
:1015300000F00F00B04207D288F80070D8F8000021
:1015400000F00F00B04254D128683D4C810712D5FD
:10155000400703D5206840F4E05020602878000759
:1015600003D5206840F4604020602068A96820F01E
:10157000F000084320602878C0072DD03049686803
:101580000839012812D0022813D0032811D0096885
:10159000890700292DDA216821F003010143216028
:1015A000FFF7E2FE814641F2883A0EE009688903BE
:1015B000EFE709688901ECE7FFF7D6FEA0EB090128
:1015C000514502D90320BDE8F0872068696800F022
:1015D0000C00B0EB810FEFD1D8F80010404601F0BD
:1015E0000F01B14207D90770006800F00F00B04248
:1015F00001D00120E7E72878400705D52068E96891
:1016000020F4E050084320602878000706D52068C1
:10161000296920F4604040EAC100206000F038F8F9
:101620002168084AC1F30311515CC84006490860AB
:1016300006480068FFF7C0FE0020C4E7003C0240F7
:1016400008380240B83A0008380700202C0700206C
:101650000448054900680968044AC1F38221515CC5
:10166000C84070473807002008380240C83A0008D0
:101670000448054900680968044AC1F34231515CD5
:10168000C84070473807002008380240C83A0008B0
:10169000154810B5006810F00C02144813D0144916
:1016A000042A0FD0082A0ED10F4C241F2268236869
:1016B00002F03F025B0207D52068C0F38810A0FB50
:1016C000010106E0084610BD2168C1F38811A1FBA5
:1016D00000010023FEF774FD2168C1F30141491C9C
:1016E0004900B0FBF1F010BD083802400024F400BE
:1016F00000366E012DE9F84F04006ED02078DFF837
:101700003C93C007A9F104054AD009F1040001681F
:10171000C1F38101012908D00068C0F381000228CB
:101720000AD1D9F80000400206D52868800337D5D1
:1017300060680028E1D033E06068B0F5803F10D0E9
:10174000B0F5A02F286810D020F4803028602868D9
:1017500020F4802028606068A8B1FFF705FE0646E7
:101760000DE0286840F48030F4E740F480202860E1
:10177000F7E700BFFFF7F8FD801B642873D82868DF
:101780008003F7D50CE0FFF7EFFD064605E000BF4C
:10179000FFF7EAFD801B6428F0D828688003F7D49F
:1017A0002078DFF89C8280074FF0000A3ED5A348DE
:1017B000001D016811F00C0F08D00068C0F3810013
:1017C00002280BD1D9F80000400207D4286880070E
:1017D00016D5E068012800D112E02BE1E068B8B12D
:1017E0000120C8F80000FFF7BFFD064605E000BF76
:1017F000FFF7BAFD801B0228C0D828688007F7D5FC
:101800002868216920F0F80040EAC10028600DE056
:10181000C8F800A0FFF7A8FD064604E0FFF7A4FD06
:10182000801B02281FD828688007F7D4207800077B
:1018300022D5824E83486169703671B10121016001
:10184000FFF792FD074604E0FFF78EFDC01B02285C
:1018500009D830688007F7D50EE0C0F800A0FFF780
:1018600083FD074605E082E0FFF77EFDC01B0228EE
:101870007DD830688007F7D42078400768D5DFF836
:10188000BCB100270BF13C0BDBF80000C0000BD40F
:10189000DBF8001041F08051CBF80010DBF80000BD
:1018A000012700F080500090674E3068C00510D4CA
:1018B000306840F480703060FFF756FD009005E01E
:1018C000FFF752FD0099401A022850D83068C00531
:1018D000F6D55A4EA0686C3601280FD0052830681E
:1018E00010D020F001003060306820F0040030603B
:1018F000A068B8B1FFF738FD00900FE0306840F005
:101900000100F4E740F004003060F7E7FFF72CFD3A
:101910000099411A41F28830814266D830688007C8
:10192000F4D50EE0FFF720FD009007E0FFF71CFD67
:101930000099411A41F28830814256D830688007B8
:10194000F4D42FB1DBF8001021F08051CBF8001057
:10195000A069C8B33949091D0968C1F38101022989
:101960004AD00228504607D0C8F8600000E03CE0AA
:10197000FFF7FAFC04463BE04746C8F86000FFF773
:10198000F3FC064605E000BFFFF7EEFC801B0228D3
:101990002BD828688001F7D4D4E907010843A16A4D
:1019A0002A4A490802EB0141626A41EA821108436E
:1019B00094F82C1040EA0161C9F800100120386643
:1019C000FFF7D2FC044606E036E000BFFFF7CCFC90
:1019D000001B022809D828688001F7D52CE000BF39
:1019E000FFF7C2FC001B022802D90320BDE8F88FD4
:1019F00028688001F4D41FE00128F7D0D9F800004E
:101A0000E26900F48001914214D1226A00F03F01A2
:101A100091420FD147F6C071626A0140914209D1EB
:101A2000A26A00F44031914204D1E16A00F0706092
:101A3000884201D00120D9E70020D7E704380240CE
:101A400000004742800E4742007000400000FFFF48
:101A500010B5401EB0F1807F01D3012010BD4FF0C2
:101A6000E02460610F21601701F069FE0020A06191
:101A700007202061002010BD7047704770B590F8B6
:101A80003C20012A32D0012480F83C40022280F818
:101A90003D2003685A689D6822F070060A68324348
:101AA0005A60134B02689A4214D0B2F1804F11D0A1
:101AB000104B9A420ED0104B9A420BD00F4B9A42C9
:101AC00008D00F4B9A4205D00E4B9A4202D00E4BD3
:101AD0009A4204D1496825F080031943916080F847
:101AE0003D40002180F83C10084670BD022070BDCA
:101AF000000001400004004000080040000C0040CD
:101B000000040140004001400018004010B50400EE
:101B100003D094F83D0010B107E0012010BD002073
:101B200084F83C00204600F00DF8022084F83D00C7
:101B3000211D206801F03EF9012084F83D000020BD
:101B400010BD000008B500680B49884212D10B484F
:101B5000016841F0020101600068002200F002000B
:101B600000900A211D20FFF7A7FCBDE808401D20BA
:101B7000FFF794BC08BD000000040040403802405C
:101B80000168CA6842F00102CA600068816801F019
:101B90000701062903D0016841F00101016000201E
:101BA000704770B5044690F83C00012817D0012515
:101BB00084F83C50022084F83D002068826822F0BE
:101BC000770222F47F4282600868502830D00DDC12
:101BD00020284DD005DC98B310283BD148E00220E6
:101BE00070BD302844D0402834D139E0602828D056
:101BF000702806D0B0F5805F2CD0B0F5005F29D1F9
:101C00000AE0CB68D1E90121206801F037F92068AA
:101C1000816841F0770109E0CB68D1E901212068B2
:101C200001F02CF92068816841F48041816011E065
:101C3000CA684968206801F033F95021206807E03C
:101C400016E0CA684968206801F03BF96021206805
:101C500001F01EF984F83D50002084F83C0070BD6E
:101C6000CA684968206801F01BF940212068EFE745
:101C7000226801461046EBE7704770B504460068DD
:101C800001694FF00005C943890715D4C168C943EC
:101C9000890711D4E91E016101202077206880693D
:101CA0008007204602D0FFF7E7FF04E000F098F835
:101CB000204600F096F8257720680169C943490756
:101CC00017D4C168C943490713D46FF004010161F7
:101CD000022020772068806910F4407F204602D0DF
:101CE000FFF7CAFF04E000F07BF8204600F079F827
:101CF000257720680169C943090716D4C168C9431B
:101D0000090712D46FF008010161042020772068D0
:101D1000C0698007204602D0FFF7AEFF04E000F064
:101D20005FF8204600F05DF8257720680169C94317
:101D3000C90617D4C168C943C90613D46FF010018E
:101D40000161082020772068C06910F4407F204698
:101D500002D0FFF791FF04E000F042F8204600F0C7
:101D600040F8257720680169C943C90708D1C168CF
:101D7000C943C90704D1891E0161204600F032F829
:101D800020680169C943090609D4C168C943090625
:101D900005D46FF0800101612046FFF76DFE2068D9
:101DA0000169C943490609D4C168C943490605D434
:101DB0006FF040010161204600F0CCF82068016915
:101DC000C94389060BD4C168C943890607D46FF09B
:101DD000200101612046BDE87040FFF74EBE70BD96
:101DE000704770472DE9F0410068474988427CD12F
:101DF000464CC821226892FBF1F001FB10234448B5
:101E000033B192FBF1F301FB1321642902D005E009
:101E1000002200E001222021FFF7A1FA206800251E
:101E2000401C2060C82800DB25606069401C6061A0
:101E3000042807DD3749AA20656108703649087013
:101E400036490870DFF8D88002214046FFF782FA51
:101E5000344F012600B302214046FFF77BFA0128E8
:101E600025D0A561E561304800684168C8292AD0BD
:101E700040686060A168884224D12C49C0F1C80044
:101E80000E702B4908702B4800F065F8C8222A49CB
:101E9000284800F01BFA16E0A0692849401CA06100
:101EA00009788842DFDBC4E906153E70DBE7E069AC
:101EB0002349401CE06109788842D4DBC4E906511B
:101EC0003D70D0E7A0601F4800684168C82918D05D
:101ED0004068E0602169884212D11B49C0F1C80006
:101EE0000E701A4908701A4800E00AE000F033F852
:101EF000BDE8F0411049C822C831154800F0E6B9E4
:101F00002061BDE8F08100000004004008070020C7
:101F100000200240020000200300002004000020F6
:101F200000140240050000209C1200200000002048
:101F3000010000203C1100206C0F00200600002052
:101F4000070000207C110020FC060020FD06002078
:101F5000FC100020704710B504460068416994F8F1
:101F60003920C1F3C011212A0BD151B1416921F0AF
:101F700080014161206B08B1FEF742FE204601F06E
:101F8000BDFA2068416994F83A20C1F38011222AF1
:101F90000BD151B1416921F040014161606B08B141
:101FA000FEF72EFE204601F09BFA002010BD704780
:101FB00070B5026804461068D168536910F00F0FBD
:101FC00053D003F0010501F490762E435FD0C20791
:101FD00005D0CA0503D5E26B42F00102E263420775
:101FE00005D5DA0703D0E26B42F00202E263820712
:101FF00005D5DA0703D0E26B42F00402E263020780
:1020000007D501F020022A4303D0E26B42F0080218
:10201000E263E26B002A34D0800604D5880602D53C
:10202000204601F074FA20684069E16BC0F380102B
:1020300001F008010143204624D001F051FA206844
:10204000416949061AD5416921F040014161606B3F
:10205000A0B11B490165606BFEF719FE002810D086
:10206000606B016DBDE87040084783060FD58B0695
:102070000DD52046BDE8704001F049BA2046FFF773
:1020800096FF70BDFFF793FF0020E06370BD03066D
:1020900006D50B0604D52046BDE8704001F016BBFE
:1020A0004006F3D54806F1D5D168204621F040011D
:1020B000D160202184F8391000F096F970BD00003D
:1020C0000934000870B5040004D094F839000025E4
:1020D00010B106E0012070BD84F83850204600F0B1
:1020E00023F8242084F839002068C16821F40051C5
:1020F000C160204601F056FA2068016921F4904140
:1021000001612068416921F02A0141612068C168AC
:1021100041F40051C160E563202084F8390084F85F
:102120003A00002070BD00002DE9F04F87B0044652
:1021300014216846FEF77CF85E4ADFF870C1266815
:102140005B4803210223002597024FF4807B4FF068
:10215000400A4FF4806966454FD1554E1036D6F887
:1021600000C04CF4002CC6F800C0366806F4002607
:102170000596066846F001060660006800F001005A
:1021800005900120CDE90201CDE90013082004905B
:1021900069461046FFF702F8484E4748C846306087
:1021A000C6E90175C6E903597561C6E9065B356282
:1021B00030467562FEF74EFE08B1FEF7A8FB666377
:1021C000B4633E4E3C4860363030C6E90358756112
:1021D000B561F5613562756286E881043046FEF7C7
:1021E00039FE08B1FEF793FB266300220921342053
:1021F000B463FFF761F9342053E0DFF8C4C06645EB
:1022000051D12B4E1436D6F800C04CF0100CC6F845
:1022100000C0366806F010060596066846F001060E
:102220000660006800F0010005904FF4C0608DE882
:1022300029000720CDE9031069461046FEF7AEFFDE
:102240001E4E2048C036B846C6E903597561B561CF
:10225000F5613562756286E801054F463046FEF746
:10226000F9FD08B1FEF753FB2663B4631548164E1B
:1022700078383060C6E90185C6E903577561C6E95B
:10228000065B356230467562FEF7E4FD08B1FEF785
:102290003EFB6663002208212520B463FFF70CF99A
:1022A0002520FFF7FBF807B0BDE8F08F004C004099
:1022B0003038024000000240406002407C110020A3
:1022C00000100140B86402409C120020F8B504469A
:1022D00090F83A0020283CD1C1B3BAB394F8380042
:1022E000012836D0012084F83800A162A28500259B
:1022F000E563222084F83A00636B1748D863636B68
:1023000016481864636B1648D864606B13460565FD
:102310000846666B216802463046091DFEF704FE3A
:10232000206801684168009184F83850C16841F420
:102330008071C1602068416941F0010141612068FC
:10234000416941F0400141610020F8BDFFE70120F3
:10235000FBE70220F9E70000633400089F3400081F
:10236000193400087047704770B5044690F839007A
:10237000202830D169B362B394F8380001282AD0FC
:10238000012084F838002162A284E2840025E563FC
:10239000212084F83900236B1048D863236B104840
:1023A0001864236B0F48D864206B134605652668B4
:1023B000206B321DFEF7B8FD21686FF04000086009
:1023C00084F838502068416941F080014161002063
:1023D00070BD012070BD022070BD0000A93400084E
:1023E000D73400081934000870477047FEE7000032
:1023F000164A412904D0472901D1C079507370474A
:10240000C1791170017A5170417A9170817AD170DD
:10241000C17A1171017B5171417B9171817BD171C5
:10242000C17B1172017C5172417C9172817CD172AD
:10243000C17C1173017D5173417D9173817DD17395
:10244000024603488169406900F04CBB5C070020EC
:1024500000000020194808B5016841F480010160BE
:10246000016801F480010091016841F400110160EC
:102470000068002200F4001000900E210D20FFF7EC
:102480001BF80D20FFF70AF800220B210F20FFF7A1
:1024900013F80F20FFF702F800220C213A20FFF773
:1024A0000BF83A20FEF7FAFF00220D214620FFF735
:1024B00003F8BDE808404620FEF7F0BF3038024080
:1024C00010B588B01C216846FDF7B2FE16484FF0E3
:1024D000204102220160154941600021C0E9021239
:1024E000082210230261C0E90531C1615402016272
:1024F000C0E90914C1620163416381634164092039
:1025000000900120CDE90102CDE903131120CDE9AE
:102510000501002269460448FEF786FF002801D025
:10252000FEF7F5F908B010BDD00E0020040100A0A0
:102530002DE9F04F87B014216846FDF779FE514828
:102540000025016841F010010160016801F01001EF
:102550000591016841F480710160016801F48071A6
:102560000591016841F020010160016801F020013E
:102570000591016841F080010160016801F080016E
:102580000591016841F001010160016801F001015C
:102590000591016841F040010160016801F04001CE
:1025A0000591016841F008010160016801F008012E
:1025B0000591016841F0020101600068DFF8C88000
:1025C00000F002004FF4584705900122394640467A
:1025D000FEF7C5FEDFF8B490012203214846FEF75E
:1025E000BEFEDFF8ACA046F6C0760122314650466A
:1025F000FEF7B5FEDFF89CB00122EF215846FEF74A
:10260000AEFE4FF4C060CDE9000501246946029496
:102610005846FEF7C3FD0720CDE900056946029440
:102620004046FEF7BBFDCDE90074032569464046F0
:10263000CDE90245FEF7B2FD009469464846019493
:10264000CDE90245FEF7AAFD0220CDE90004CDE95F
:10265000020569464846FEF7A1FDCDE900646946DA
:102660005046CDE90245FEF799FDEF20CDE9000483
:1026700069465846CDE90245FEF790FD07B0BDE832
:10268000F08F000030380240001402400018024071
:10269000001C02400020024010B586B000241748FC
:1026A00000940194029403940494134905940160E6
:1026B00042F2CF01C0E901143121C0E90314846161
:1026C000FFF724FA08B1FEF722F94FF4805000908A
:1026D00069460A48FFF765FA08B1FEF718F904944D
:1026E00004A906480594FFF7C9F9002801D0FEF7B0
:1026F0000EF906B010BD0000000400401C0F0020C1
:102700000C4810B50A4901604FF416514160002190
:1027100081600C22C160C0E904128161C161FFF7D0
:10272000D1FC002803D0BDE81040FEF7F0B810BD82
:10273000004C0040FC1000200C4810B50A49016014
:102740004FF416514160002181600C22C160C0E944
:1027500004128161C161FFF7B5FC002803D0BDE818
:102760001040FEF7D4B810BD001001403C1100200D
:10277000FEE700002DE9F05FDFF88091002599F871
:10278000131099F8122099F8110001EB02211FFA99
:1027900081F899F8151099F8142099F8104001EB78
:1027A00002218FB24FF6FF7101EA470603281BD0C2
:1027B00010281BD00021514810308346FEF726F820
:1027C0004846042C7ED1B7F5FA6F7BD8042180F8F7
:1027D000D81099F811004FF0010A0321544603283C
:1027E00007D0102835D065E0F01C00E0F01D81B264
:1027F000E1E799F81320424B4846162A02D0032AF3
:1028000014D057E03D4A032482F8D910114681F8CC
:10281000DA6059190219641C6D1C91F82A10EDB286
:1028200082F8D810E4B2102DF3D343E0334A0324E6
:1028300082F8D910114681F8DA6059190219641C1E
:102840006D1C0979EDB282F8D810E4B2262DF4D3CC
:1028500030E099F8130000251026472802D04128BF
:1028600014D027E008F0FF015846FFF7C1FD2348C8
:10287000224980F8D96080F8DA50472081F8DB00DF
:10288000084680F8DC5081F8DDA012E008F0FF0176
:102890005846FFF7ADFD1948184980F8D96080F80F
:1028A000DA50412081F8DB00084680F8DC5080F8DF
:1028B000DD70062411482146D8300646FDF7A6FFF4
:1028C000054600E018E021463046FDF79FFF09EB82
:1028D0000401641C81F8D850E1B2000A09EB01023E
:1028E000491C82F8D8000748CAB231464270BDE898
:1028F000F05F0548FFF738BDBDE8F09F5C0F002092
:102900004E0E0020000000203C1100207047704750
:102910002DE9F04F69494FF00008A1F23440D1F899
:1029200090514561D1F894418461D1F89821C261F8
:10293000D1F8A43191460362D1F8B02142629346A6
:10294000D1F8A8218262D1F8B4619246C662D1F86A
:10295000AC210263D1F8B8111F46416395B95FEA13
:10296000040C0FD15FEA090C0CD15FB95FEA0B07C9
:1029700008D15FEA0A0705D1370003D1170001D15A
:102980000F0003D0552780F83B7001E080F83B80B2
:102990004B4F07F8098B07F8088C07F8078C07F8E6
:1029A000068C90F83BC007F805CC90F83CC007F8BF
:1029B00004CC07F8035C4FEA152C07F802CC4FEA69
:1029C000154C07F801CC2D0E3D707C70250ABD70AA
:1029D000250CFD70240E3C7187F805904FEA1924F0
:1029E000BC714FEA1944FC714FEA19643C727B7266
:1029F0001C0ABC721C0CFC721B0E3B7387F80DB0DA
:102A00004FEA1B23BB734FEA1B43FB734FEA1B6365
:102A10003B7487F811A04FEA1A23BB744FEA1A439C
:102A2000FB744FEA1A633B757E75330ABB75330C32
:102A3000FB75330E3B767A76130ABB76130CFB7666
:102A4000120E3A7707F81D1F0A0A7A700A0CBA703C
:102A5000090EF97001783971417879718178B9710D
:102A6000C178F97101793972417979728179B972D4
:102A7000C179F972017A3973417A7973817AB973BC
:102A8000C27AFA73037B3B74437B7B74837BBB7496
:102A9000C07BF87487F8148087F8158087F8168053
:102AA00087F81780074887F8188087F81980890009
:102AB00081719100C171BDE8F08F0000900B002082
:102AC0004E0E00200000002010B5002305E000BFDE
:102AD00010F8014BD4545B1CDBB28842F8D30020C1
:102AE00010BD00002DE9F04387B004460B20029092
:102AF0000025012003900595022091460F462E46A1
:102B000000950490FEF7EEFADFF84C80D8F800103C
:102B100021F48061C8F8001005A96846FEF74EFA56
:102B2000B0B10126D8F8001041F48061C8F8001057
:102B3000FEF790FA07B03046BDE8F08319F805209B
:102B40006D1C0023EDB221461846FEF78DFA641C79
:102B5000BC42F3D3E6E70000003C02407047FEF7BA
:102B600009BC000070B56648644A81694069FFF796
:102B7000ABFF644E002280213046FEF7F0FB4FF49D
:102B80007A742046FEF708FA5C49012201F120051B
:102B9000C8792870087A6870487AA870887AE870CE
:102BA000C87A2871087B6871487BA871887BE871B6
:102BB000C87B2872087C6872487CA872887CE8729E
:102BC000C87C2873087D6873487DA873887DE87386
:102BD00080213046FEF7C3FB2046FEF7DDF90024D6
:102BE00085F8384085F8394085F83B4005F5DD60CB
:102BF00085F83C4044808480C480224608213046C9
:102C0000FEF7ADFB002204213046FEF7A8FB0022B0
:102C100002213046FEF7A3FB6C7385F8384085F837
:102C2000394085F83B4005F2344085F83C40C0F817
:102C30009041C0F89441C0F89841C0F8A441C0F850
:102C4000B041C0F8A841C0F8B441C0F8AC41C0F8E8
:102C5000B841A0F89C41A0F89E41A0F8A041A0F87E
:102C60001842A0F82442A0F83042A0F83C42A0F854
:102C70001C42A0F82842A0F83442A0F84042A0F834
:102C80002042A0F82C42A0F83842A0F84442A0F814
:102C90001A42A0F82642A0F83242A0F83E42A0F81C
:102CA0001E42A0F82A42A0F83642A0F84242A0F8FC
:102CB0002242A0F82E42A0F83A42A0F84642002153
:102CC000A0F57D7202EB8100491CC461C466C0F8A6
:102CD000BC40C0F80C41C0F85C41C0F8AC41C0F841
:102CE000FC41C0F84C42C0F89C42C0F8EC42C0F82D
:102CF0003C43C0F88C431429E4DB70BD3C07002042
:102D0000000000200020024030B593B0302168461A
:102D1000FDF78EFA14210CA8FDF78AFA1948002550
:102D2000016841F080510160006800F0805011900E
:102D30001548016841F4804101600068022400F4F4
:102D40008040119001200090000401908001CDE9A5
:102D500006400C200890A820CDE9090404200B901F
:102D60006846FEF7C7FC0CA90F2081E831004FF43C
:102D7000A0500F90E002109005210CA8FEF7CEFBAA
:102D800013B030BD40380240007000400548016873
:102D900041F47001016003494FF000608039086020
:102DA0007047000088ED00E00148FEF766BF0000B4
:102DB0001C0F0020F0B50268254C264D264E274FEB
:102DC000274B4FF0804CA04209D0604507D0A84265
:102DD00005D0B04203D0B84201D0984204D122F0CD
:102DE000700E4A6842EA0E02A0421BD0604519D01C
:102DF000A84217D0B04215D0B84213D0984211D093
:102E0000184DA8420ED0184DA8420BD0174DA8421D
:102E100008D0174DA84205D0164DA84202D0164D35
:102E2000A84203D122F44075CA682A434D6922F0B2
:102E300080022A4302608A68C2620A688262A042F3
:102E400001D0984201D10969016301214161F0BDBE
:102E5000000001400004004000080040000C004059
:102E6000000401400040014000440140004801408E
:102E700000180040001C00400020004010B584688D
:102E800042EA032224F47F440A432243826010BDB5
:102E9000826822F070020A4342F0070181607047A5
:102EA00010B5036A046A24F001040462846924F002
:102EB000F00444EA021423F00A020A438461026225
:102EC00010BD10B5036A23F0100303628369046A1E
:102ED00023F4704343EA023224F0A00343EA0111D1
:102EE0008261016210BD00002DE9F04F0BACDDE9FD
:102EF000097A94E8000B002501242E460CE000BF5F
:102F000034EA000C52F823C00ED02CEA040C00BFA7
:102F1000640042F823C0761C8E42F1D3C8F800004A
:102F20001948408818B10CE04CEA040CF0E7012085
:102F300003E0136842F82030401CB84201D2142844
:102F4000F7D30123002414E00026304608E000BF38
:102F500052F820C033EA0C0C01D1761CB6B2401CEA
:102F6000B84201D21428F3D35B005E4500D36D1C38
:102F7000641C8C42E8D3C9F80050554502D30020A8
:102F8000BDE8F08F0120FBE7900B00202DE9F04F0A
:102F9000A2B0044600201C901D901E901F9020900F
:102FA00021901D46164694F802C0E3782279617993
:102FB0000CEB030808EB020A0AEB0107FE498A78CA
:102FC000AA2A7DD18870FD498346A1F2FE200A8895
:102FD000C2F34503A0F818321B93C2F30423A0F8F0
:102FE00024321A93530B4A88914602F00F0203EBE6
:102FF000C2025208A0F830220892C9F34412A0F885
:103000003C2207920A89C2F34509A0F81C92C2F338
:103010000423CDF81890A0F828321693530B4A8950
:10302000964602F00F0203EBC2024FEA5209A0F8E3
:103030003492CEF34413CDF84490A0F84032049378
:103040000A8AC2F34509A0F82092CDF84090C2F355
:103050000429A0F82C92530BCDF834904A8A91465B
:1030600002F00F0203EBC2025308A0F838321593A6
:10307000C9F34413A0F8443214938B8803F03F0241
:10308000A0F81A221992C3F3C412A0F826220992BA
:10309000CA885B0B914602F0070203EBC203A0F85B
:1030A00032329E46C9F30413A0F83E3217938A8940
:1030B00002F03F03A0F81E32C2F3C419139300E0DC
:1030C00099E1A0F82A92530BCDF84890CA8991460D
:1030D00002F0070203EBC203A0F83632C9F3041969
:1030E0000F93A0F84292CDF838908A8A02F03F03FD
:1030F000A0F822320C93C2F3C413A0F82E320B9323
:10310000530BCA8A02F0070103EBC101A0F83A127F
:103110000A91C2F30411A0F846121B9B199A03915D
:103120001340C0F8783219931A9B099A1340C0F8DB
:103130007C32089A099302EA0E02C0F89022964661
:10314000179B079A1A40C0F89422DDF81890139B39
:1031500009EA0309C0F88092CDF84C90DDF8489058
:10316000169B03EA0903C0F884321293DDF84490F9
:103170000F9B09EA0309C0F89892CDF83C90DDF85E
:103180003890049B03EA0903C0F89C320493DDF8ED
:1031900040900C9B09EA0309C0F88892CDF8309062
:1031A000DDF834900B9B09EA0309C0F88C92CDF846
:1031B0002C90159B0A9902FA0AF20B40C0F8A03233
:1031C0000A93149B03990B40C0F8A4320393199BF4
:1031D000D118099B0EFA08F203FA0CF31A441144B1
:1031E000C0F8A812049BDDF84C908E4603FA0AF34F
:1031F00003EB0901DDF83C90129B09FA08F903FA88
:103200000CF309EB03021144C0F8AC12039BDDF888
:10321000309003FA0AF303EB09010A9BDDF82C90C6
:1032200003FA08F309FA0CF903EB09021144C0F898
:10323000B012A0790DF10409637A1FAA1CA989E8CC
:103240000F00E0790090338A06F11C02394670467F
:10325000FFF74AFE1F98B84203D3594AC2F890B10B
:1032600003E057491C9AC1F8902181B254484FF0AD
:103270000109B942A0F89C1112D2A27991420FD350
:1032800094F83810CA070BD141F0010184F83810C6
:10329000698829B90A216980A5F80490A5F80690E3
:1032A000B0F89C11A279914204D219B1297801F0A9
:1032B000010102E0298841F0FE012980A1790DF188
:1032C000040894F809C020AB1DAA88E80E10E17923
:1032D00000918046338AD0F8AC0206F1BC02394630
:1032E000FFF702FE2098B84202D3C8F894B102E07A
:1032F0001D9AC8F8942181B24046A8F89E11B9429F
:1033000012D2A27991420FD394F838108A070BD4C5
:1033100041F0020184F83810698829B90B216980CD
:10332000A5F80490A5F80690B0F89E11A2799142F4
:1033300004D219B1297801F0020102E0298841F094
:10334000FD012980A17901A894F809C021AB1EAA2A
:1033500080E80E10E1790091338A06F5AE723946A5
:10336000D8F8B002FFF7C0FD2198B84202D3C8F8E0
:1033700098B102E01E9AC8F8982181B24046A8F898
:10338000A011B94212D2A27991420FD394F8381009
:103390004A070BD441F0040184F83810698829B930
:1033A0000C216980A5F80490A5F80690B0F8A0114A
:1033B000A27991420BD205E0000000208E0E002081
:1033C000900B002019B1297801F0040102E029884E
:1033D00041F0FB012980318A491C89B231821429CC
:1033E00002D2E279914201D9A6F810B041880029B1
:1033F00001D1A8F8029022B0BDE8F08F0148FEF795
:10340000D7BD0000FC10002010B5806B0021C185E5
:10341000C184FEF7CCFD10BD70B5846B2068406997
:1034200094F83910C0F3C0100025212904D118B137
:10343000E584204600F062F82068406994F83A106C
:10344000C0F38010222904D118B1E585204600F090
:1034500047F8E06B40F01000E0632046FEF7A7FD60
:1034600070BD10B50146806B09680968C90513D4A1
:103470000021C1850168CA6822F48072CA600168AF
:103480004A6922F001024A6101684A6922F0400259
:103490004A61202180F83A10FEF764FF10BD10B594
:1034A000806BFEF760FF10BD10B50146806B0968A8
:1034B0000968C9050CD40021C18401684A6922F059
:1034C00080024A610068C16841F04001C16010BDDE
:1034D000FEF78AFF10BD10B5806BFEF786FF10BDAA
:1034E0000168CA6822F49072CA6001684A6922F0D1
:1034F00001024A61202180F83A1070470168CA68C9
:1035000022F0C002CA60202180F83910704710B53F
:1035100090F83A10222901D0022010BD8168B1F53F
:10352000805F11D00169002901681FD0496801F04E
:103530007F03816A4A1C82620B70C18D491E090497
:10354000090CC18518D02BE00269816A002A026843
:10355000526805D0D2B20A80816A491C8162ECE7C8
:10356000C2F308020A80816A891CF7E74A68816A07
:103570004B1C83620A70E0E70168CA6822F02002EF
:10358000CA600168CA6822F48072CA6001684A6928
:1035900022F001024A61202180F83A10FEF7E2FE93
:1035A000002010BD2DE9F041044600680169E26881
:1035B00021F44051114301612169A068E269084387
:1035C0006169114308432168CA6849F20C639A4350
:1035D0000243CA6020684169A26921F44071114325
:1035E0004161E069192764253226B0F5004F354A5C
:1035F000354920684FF0000806D0884201D090423B
:1036000036D1FEF735F835E0884201D0904202D13C
:10361000FEF72EF801E0FEF71BF861684A18A0FBE0
:10362000070148EB0803FCF7CBFD0146B0FBF5F0C2
:103630000201B1FBF5F06FF01803584301EB800075
:1036400006EBC000B0FBF5F000F0F80002EB400222
:10365000B1FBF5F0584301EB800006EBC000B0FB76
:10366000F5F000F00700216810448860BDE8F081A3
:10367000FDF7EEFF61688B0F8A00A0FB0701FCF7E6
:103680009FFD0146B0FBF5F06FF01802504301EBCF
:10369000800006EB0010B0FBF5F000F0F002B1FB8B
:1036A000F5F002EB0012B1FBF5F06FF01803584390
:1036B00001EB800006EB0010B0FBF5F000F00F000E
:1036C000D1E70000001401400010014090F83910CB
:1036D000212901D0022070478168B1F5805F016A1D
:1036E0000BD04A1C0262026809785160C18C491EE5
:1036F0000904090CC1840ED017E009880268C1F3DF
:103700000801516001690029016A02D0491C016267
:10371000ECE7891CFBE70168CA6822F08002CA60F6
:103720000068C16841F04001C1600020704700009E
:103730000148FEF73DBC00003C110020FEE70907F0
:10374000090E002804DB00F1E02080F80014704727
:1037500000F00F0000F1E02080F8141D704702E037
:1037600008C8121F08C1002AFAD17047704700200C
:1037700001E001C1121F002AFBD17047FDF702FED4
:10378000FFF7C2FAFEF7D4FEFEF764FEFEF7D4FFA1
:10379000FEF782FFFEF794FEFEF7B2FFFFF7E2F9B5
:1037A000FCF7AEFDB848FEF7EBF9C822B749B848B8
:1037B000FEF78CFDB74E00244FF0550B86F83A40CB
:1037C00006F5DD6906F2344AB34F4FF40068012272
:1037D00041463846FDF7C3FD012211033846FDF787
:1037E000BEFD0122D1033846FDF7B9FD0122910348
:1037F0003846FDF7B4FDA94D012202212846FDF708
:10380000AEFD012211462846FDF7A9FDA44D012277
:1038100080212846FDF7A3FD012240212846FDF71F
:103820009EFD012251022846FDF799FD0122110259
:103830002846FDF794FD012241462846FDF78FFDFD
:103840004FF48068012241462846FDF788FD954DDA
:103850002879AA280CD194492C710020420402F145
:10386000C042128821F81020401C80B22028F5D3D5
:1038700068790028B9F802002ED060BBB17BAA207D
:10388000884315D0AC70CAF89041CAF89441CAF880
:103890009841AAF89C41AAF89E41AAF8A04186F84E
:1038A0003840F17BAA2088430CD0EC7050461DE0D4
:1038B0007D4B78484A3BA3F5D56202F57871FFF756
:1038C00065FBEEE7784B73484A3BA3F5D56202F5FA
:1038D0007871FCF759FD15E0A0B9AC70EC70CAF82E
:1038E0009041CAF894415046CAF89841C0F8A441A2
:1038F000C0F8B041C0F8A841C0F8B441C0F8AC412C
:10390000CAF8B84102213846FDF724FD2872042187
:103910003846FDF71FFD4146DFF89081687240464A
:10392000FDF718FDA872B9F802004F4680B10122D8
:1039300008214046FDF713FD012204214046FDF712
:103940000EFD012202214046FDF709FD86F83CB03C
:10395000388810B186F83BB002E0AA2086F83B0018
:10396000707BAA287DD174730022082140461D3641
:10397000FDF7F5FC002204214046FDF7F0FC002293
:1039800002214046FDF7EBFCF4763477B477F47708
:103990007C80BC80FC80CAF89041CAF89441CAF887
:1039A0009841CAF8A441CAF8B041CAF8A841CAF877
:1039B000B441CAF8AC41CAF8B841AAF89C41AAF887
:1039C0009E41AAF8A041AAF81842AAF824425046FB
:1039D000AAF83042AAF83C42A0F81C42A0F82842BB
:1039E000A0F83442A0F84042A0F82042A0F82C42AF
:1039F000A0F83842A0F84442A0F81A42A0F82642A3
:103A0000A0F83242A0F83E42A0F81E42A0F82A4296
:103A1000A0F83642A0F84242A0F82242A0F82E4276
:103A20001C49A0F83A42AAF846424031EC721D3EC9
:103A3000EA7A01EB8200521CC461C466C0F8BC4043
:103A4000C0F80C41C0F85C41C0F8AC41C0F8FC4182
:103A5000C0F84C42C0F89C42C0F8EC42C0F83C436D
:103A600000E005E0C0F88C43D0B2E8721428DFD340
:103A7000FEF74EFF287800283FF4A6AEFEF77AFE48
:103A80006C702C70A0E600001C0F00206C0F002052
:103A90003C1100205C070020001402400018024086
:103AA000001C0240000000208E0E0020002002407A
:103AB00000061016000610160000000000000000AE
:103AC00001020304060708090000000001020304C4
:103AD000F03A0008000000203C070000A80200089F
:103AE000583D00083C070020E40F00006E37000836
:103AF00001161C0E083004112808C1814001C08045
:103B00004104690C2908E918A91C091A300916385A
:103B1000093660092E70092F6000FF00C0C101C383
:103B20000302C2C60607C705C5C404CC0C0DCD0FE1
:103B3000CFCE0E0ACACB0BC90908C8D81819D91B91
:103B4000DBDA1A1EDEDF1FDD1D1CDC14D4D515D711
:103B50001716D6D21213D311D1D010F03031F13361
:103B6000F3F23236F6F737F53534F43CFCFD3DFF21
:103B70003F3EFEFA3A3BFB39F9F83828E8E929EBF1
:103B80002B2AEAEE2E2FEF2DEDEC2CE42425E52751
:103B9000E7E62622E2E323E12120E0A06061A163C1
:103BA000A3A26266A6A767A56564A46CACAD6DAF61
:103BB0006F6EAEAA6A6BAB69A9A86878B8B979BB11
:103BC0007B7ABABE7E7FBF7DBDBC7CB47475B57791
:103BD000B7B67672B2B373B17170B0509091519321
:103BE00053529296565797559594549C5C5D9D5FA1
:103BF0009F9E5E5A9A9B5B99595898884849894B71
:103C00008B8A4A4E8E8F4F8D4D4C8C4484854587D0
:103C100047468682424383418180224032103220CF
:103C2000190B11428032013202A204320E320632E6
:103C30000A5A0C1081321B32195A1A0C6904815A23
:103C40001130320F296C5A1E04091220290C290840
:103C50002910290C41295869046970E964295029FF
:103C60005C293CE94069606924290CA92041293478
:103C70005A17549A1D04A9406934E940A9140A113D
:103C8000018029545A151441692C6910A994E90C32
:103C9000E9C06904A9603218DA1658291029188178
:103CA0006938E90C091A206910E9809A06EC0912B2
:103CB000D0E91029400A111B0469C02948DA170409
:103CC00029C09A19502910321A5A1C0869F0E9B013
:103CD000E9BC41721FDA0A0469182908294C320C20
:103CE0009A08E0A92029ACA9D8291069209A1018AF
:103CF000290CE984E93C297C296429F8091240E966
:103D0000E069402950290C9A0F84810A151B04414F
:103D1000A97CE9C40916209A154029E829B4A90408
:103D2000292029186920A934290829106920A91CEB
:103D30000912A069285A1714DA1D182910692C29AC
:103D40000829B8691069282960A90429A4694001D3
:083D50002A3201C2101324F411
:040000050800018965
:00000001FF
